:10000000EEC0189518951895189518951895189587
:10001000189518951895189518950F935E9BFECF17
:100020000BB10F7D0BB90F9108950F931F932F9371
:100030003F934F935F93733071F4643818F009E085
:1000400064583EC0603218F008E0605239C007E0E2
:100050006C5B724035C0723071F46C3B48F46835AB
:1000600020F4645F714005E02BC0685506E028C0AD
:100070006C5B07E025C07130B1F4643F40F4603937
:1000800050F46C3260F4685C704002E019C005E026
:10009000645F714015C004E06059714011C003E015
:1000A0006C5271400DC0683C20F4643628F400E0C6
:1000B00007C0685C02E004C06456704001E000C004
:1000C00070E06A3518F019E06A5529C0603518F0FB
:1000D00018E0605524C0663418F017E066541FC05D
:1000E0006C3318F016E06C531AC0623318F015E048
:1000F000625315C0683218F014E0685210C06E31B7
:1001000018F013E06E510BC0643118F012E0645126
:1001100006C06A3018F011E06A5001C010E0262FC6
:1001200060E3060F0CB979DF160F1CB976DF260FD6
:100130002CB973DF5F914F913F912F911F910F91D8
:1001400008950F600ABB01B30F7001BB0AB30F70B3
:100150000ABB04B300E005BB006F04BB07B300603B
:1001600007BBB898B998089580E28CB956DF089516
:100170000F931F932F933F934F935F936F937F93AF
:1001800041E054E031E021E01FEF0FEF0A95F1F775
:100190001A95D9F72A95C1F73A95A9F743955A9533
:1001A00089F77F916F915F914F913F912F911F91AF
:1001B0000F9108950F931F932F933F9331E021E008
:1001C00018E20FEF0A95F1F71A95D9F72A95C1F7BA
:1001D0003A95A9F73F912F911F910F910895AFE59F
:1001E000ADBFA2E0AEBFADDF03E309B908E00AB9D5
:1001F000A8DFBEDFBDDFBCDF98D08F939F9380EE7A
:1002000090E1282F53D010E06FD012E56DD085D04B
:10021000AFDF282F4BD012E04CD0239542D008946A
:1002200063D07BD07F936F9370E06FEFFEDE60E270
:100230006CB9F3DE692FF9DE60E26CB9EEDE612F96
:100240006F3F09F46A95F1DE60E26CB9E6DE6F910A
:100250007F91282F2BD013E02CD0239522D0089407
:1002600043D05BD07F936F93612F7EEF672370E065
:10027000DCDE6AE06CB9D1DE6DE06CB9CEDE6F9188
:100280007F91839583959A9519F49F918F91B4CF1F
:10029000B8CF06E10A95F1F708950BE00A95F1F75A
:1002A0000895B89AB998F5DFB898F7DF122FB99A80
:1002B000F4DF0894111F01C0110F59F0B89A18F417
:1002C0000000B99802C0B99A00C0E3DFB898E1DF36
:1002D000F3CFB89AB998DDDFB898B09BFECF889479
:1002E000B1990894D6DF089520FFE3CF331F11E0C2
:1002F000B89ACFDFB898CDDF8894B1990894111FD0
:10030000B8F7B89A379510F4B99801C0B99AC1DF17
:10031000B898B09BFECFBDDF0895B89AB99AB9DFFF
:10032000B898BBDFB998B5DF0895332738BB37BB22
:0203300008952E
:00000001FF
